{
  "contractName": "Converter",
  "abi": [
    {
      "inputs": [
        {
          "internalType": "uint256",
          "name": "amount",
          "type": "uint256"
        }
      ],
      "name": "weiToEth",
      "outputs": [
        {
          "internalType": "uint256",
          "name": "",
          "type": "uint256"
        }
      ],
      "stateMutability": "pure",
      "type": "function"
    }
  ],
  "bytecode": "0x608060405234801561000f575f80fd5b506101968061001d5f395ff3fe608060405234801561000f575f80fd5b5060043610610029575f3560e01c8063f99a910c1461002d575b5f80fd5b610047600480360381019061004291906100b0565b61005d565b60405161005491906100ea565b60405180910390f35b5f670de0b6b3a7640000826100729190610130565b9050919050565b5f80fd5b5f819050919050565b61008f8161007d565b8114610099575f80fd5b50565b5f813590506100aa81610086565b92915050565b5f602082840312156100c5576100c4610079565b5b5f6100d28482850161009c565b91505092915050565b6100e48161007d565b82525050565b5f6020820190506100fd5f8301846100db565b92915050565b7f4e487b71000000000000000000000000000000000000000000000000000000005f52601260045260245ffd5b5f61013a8261007d565b91506101458361007d565b92508261015557610154610103565b5b82820490509291505056fea264697066735822122063d9ae4fa0111127b32184324ddc7cc6e164db072e6f677e172d589a6b45878a64736f6c63430008140033",
  "immutableReferences": {},
  "source": "// SPDX-License-Identifier: MIT\r\npragma solidity >=0.8.13;\r\n\r\ncontract Converter {\r\n    function weiToEth(uint amount) public pure returns(uint) {\r\n        return amount / 1000000000000000000; // 1 ETH = 1,000,000,000,000,000,000 WEI\r\n    }\r\n}",
  "sourcePath": "D:\\code\\solidity\\simple-contract\\contracts\\Converter.sol",
  "compiler": {
    "name": "solc",
    "version": "0.8.20+commit.a1b79de6.Emscripten.clang"
  },
  "schemaVersion": "3.4.14",
  "updatedAt": "2023-07-20T16:57:34.187Z",
  "devdoc": {
    "kind": "dev",
    "methods": {},
    "version": 1
  },
  "userdoc": {
    "kind": "user",
    "methods": {},
    "version": 1
  }
}