{
  "contractName": "Converter",
  "abi": [
    {
      "inputs": [
        {
          "internalType": "uint256",
          "name": "amount",
          "type": "uint256"
        }
      ],
      "name": "weiToEth",
      "outputs": [
        {
          "internalType": "uint256",
          "name": "converted",
          "type": "uint256"
        }
      ],
      "stateMutability": "pure",
      "type": "function",
      "constant": true
    }
  ],
  "bytecode": "0x6101af610053600b82828239805160001a607314610046577f4e487b7100000000000000000000000000000000000000000000000000000000600052600060045260246000fd5b30600052607381538281f3fe73000000000000000000000000000000000000000030146080604052600436106100355760003560e01c8063f99a910c1461003a575b600080fd5b610054600480360381019061004f91906100c2565b61006a565b60405161006191906100fe565b60405180910390f35b6000670de0b6b3a7640000826100809190610148565b9050919050565b600080fd5b6000819050919050565b61009f8161008c565b81146100aa57600080fd5b50565b6000813590506100bc81610096565b92915050565b6000602082840312156100d8576100d7610087565b5b60006100e6848285016100ad565b91505092915050565b6100f88161008c565b82525050565b600060208201905061011360008301846100ef565b92915050565b7f4e487b7100000000000000000000000000000000000000000000000000000000600052601260045260246000fd5b60006101538261008c565b915061015e8361008c565b92508261016e5761016d610119565b5b82820490509291505056fea2646970667358221220b289ea4bab293b09ef3078ca349f5fd62a32a96babd4cd6c25ee89fe6cb8f9c864736f6c63430008130033",
  "immutableReferences": {},
  "source": "// SPDX-License-Identifier: MIT\r\npragma solidity >=0.8.19 <0.9.0;\r\n\r\nlibrary Converter {\r\n    function weiToEth(uint amount) public pure returns(uint converted) {\r\n        converted = amount / 1000000000000000000;\r\n        return converted; // 1 ETH = 1,000,000,000,000,000,000 WEI\r\n    }\r\n}",
  "sourcePath": "D:\\code\\solidity\\simple-contract\\contracts\\Converter.sol",
  "compiler": {
    "name": "solc",
    "version": "0.8.19+commit.7dd6d404.Emscripten.clang"
  },
  "schemaVersion": "3.4.14",
  "updatedAt": "2023-07-26T04:12:04.035Z",
  "networkType": "ethereum",
  "devdoc": {
    "kind": "dev",
    "methods": {},
    "version": 1
  },
  "userdoc": {
    "kind": "user",
    "methods": {},
    "version": 1
  }
}