{
  "contractName": "SimpleContract",
  "abi": [
    {
      "inputs": [],
      "stateMutability": "nonpayable",
      "type": "constructor"
    },
    {
      "inputs": [
        {
          "internalType": "address",
          "name": "addr",
          "type": "address"
        }
      ],
      "name": "getBalanceInEth",
      "outputs": [
        {
          "internalType": "uint256",
          "name": "",
          "type": "uint256"
        }
      ],
      "stateMutability": "view",
      "type": "function",
      "constant": true
    },
    {
      "inputs": [
        {
          "internalType": "address payable",
          "name": "receiver",
          "type": "address"
        },
        {
          "internalType": "uint256",
          "name": "sentCoin",
          "type": "uint256"
        }
      ],
      "name": "sendCoin",
      "outputs": [],
      "stateMutability": "nonpayable",
      "type": "function"
    }
  ],
  "bytecode": "0x608060405234801561001057600080fd5b50336000806101000a81548173ffffffffffffffffffffffffffffffffffffffff021916908373ffffffffffffffffffffffffffffffffffffffff16021790555061037a806100606000396000f3fe608060405234801561001057600080fd5b50600436106100365760003560e01c80637bd703e81461003b57806390b98a111461006b575b600080fd5b610055600480360381019061005091906101cd565b610087565b6040516100629190610213565b60405180910390f35b61008560048036038101906100809190610298565b61011f565b005b600073__Converter_____________________________63f99a910c8373ffffffffffffffffffffffffffffffffffffffff16316040518263ffffffff1660e01b81526004016100d791906102e7565b602060405180830381865af41580156100f4573d6000803e3d6000fd5b505050506040513d601f19601f820116820180604052508101906101189190610317565b9050919050565b8173ffffffffffffffffffffffffffffffffffffffff166108fc829081150290604051600060405180830381858888f19350505050158015610165573d6000803e3d6000fd5b505050565b600080fd5b600073ffffffffffffffffffffffffffffffffffffffff82169050919050565b600061019a8261016f565b9050919050565b6101aa8161018f565b81146101b557600080fd5b50565b6000813590506101c7816101a1565b92915050565b6000602082840312156101e3576101e261016a565b5b60006101f1848285016101b8565b91505092915050565b6000819050919050565b61020d816101fa565b82525050565b60006020820190506102286000830184610204565b92915050565b60006102398261016f565b9050919050565b6102498161022e565b811461025457600080fd5b50565b60008135905061026681610240565b92915050565b610275816101fa565b811461028057600080fd5b50565b6000813590506102928161026c565b92915050565b600080604083850312156102af576102ae61016a565b5b60006102bd85828601610257565b92505060206102ce85828601610283565b9150509250929050565b6102e1816101fa565b82525050565b60006020820190506102fc60008301846102d8565b92915050565b6000815190506103118161026c565b92915050565b60006020828403121561032d5761032c61016a565b5b600061033b84828501610302565b9150509291505056fea2646970667358221220693250b14cb2ff243554b3f21b542e5631e296c54410a28b9e579fe09f37ae4564736f6c63430008130033",
  "immutableReferences": {},
  "source": "// SPDX-License-Identifier: MIT\r\npragma solidity >=0.8.19 <0.9.0;\r\nimport \"./Converter.sol\";\r\n\r\ncontract SimpleContract {\r\n    address sender;\r\n\r\n    constructor() {\r\n        sender = msg.sender;\r\n    }\r\n\r\n    function getBalanceInEth(address addr) public view returns(uint) {\r\n        return Converter.weiToEth(uint(addr.balance));\r\n    }\r\n\r\n    function sendCoin(address payable receiver, uint sentCoin) public  {\r\n        //if(getBalanceInEth(sender) < sentCoin) return false;\r\n        receiver.transfer(sentCoin);\r\n    }\r\n}",
  "sourcePath": "D:\\code\\solidity\\simple-contract\\contracts\\SimpleTransaction.sol",
  "compiler": {
    "name": "solc",
    "version": "0.8.19+commit.7dd6d404.Emscripten.clang"
  },
  "schemaVersion": "3.4.14",
  "updatedAt": "2023-07-26T05:48:32.230Z",
  "networkType": "ethereum",
  "devdoc": {
    "kind": "dev",
    "methods": {},
    "version": 1
  },
  "userdoc": {
    "kind": "user",
    "methods": {},
    "version": 1
  }
}