{
  "contractName": "SimpleContract",
  "abi": [
    {
      "inputs": [],
      "stateMutability": "nonpayable",
      "type": "constructor"
    },
    {
      "inputs": [
        {
          "internalType": "address",
          "name": "addr",
          "type": "address"
        }
      ],
      "name": "getBalanceInEth",
      "outputs": [
        {
          "internalType": "uint256",
          "name": "",
          "type": "uint256"
        }
      ],
      "stateMutability": "view",
      "type": "function",
      "constant": true
    },
    {
      "inputs": [
        {
          "internalType": "address payable",
          "name": "receiver",
          "type": "address"
        },
        {
          "internalType": "uint256",
          "name": "sentCoin",
          "type": "uint256"
        }
      ],
      "name": "sendCoin",
      "outputs": [
        {
          "internalType": "bool",
          "name": "",
          "type": "bool"
        }
      ],
      "stateMutability": "nonpayable",
      "type": "function"
    }
  ],
  "bytecode": "0x608060405234801561001057600080fd5b5033600160006101000a81548173ffffffffffffffffffffffffffffffffffffffff021916908373ffffffffffffffffffffffffffffffffffffffff1602179055506103ed806100616000396000f3fe608060405234801561001057600080fd5b50600436106100365760003560e01c80637bd703e81461003b57806390b98a111461006b575b600080fd5b61005560048036038101906100509190610234565b61009b565b604051610062919061027a565b60405180910390f35b610085600480360381019061008091906102ff565b610156565b604051610092919061035a565b60405180910390f35b60008060009054906101000a900473ffffffffffffffffffffffffffffffffffffffff1673ffffffffffffffffffffffffffffffffffffffff1663f99a910c8373ffffffffffffffffffffffffffffffffffffffff16316040518263ffffffff1660e01b815260040161010e919061027a565b602060405180830381865afa15801561012b573d6000803e3d6000fd5b505050506040513d601f19601f8201168201806040525081019061014f919061038a565b9050919050565b600081610184600160009054906101000a900473ffffffffffffffffffffffffffffffffffffffff1661009b565b101561019357600090506101cb565b8273ffffffffffffffffffffffffffffffffffffffff166108fc839081150290604051600060405180830381858888f1935050505090505b92915050565b600080fd5b600073ffffffffffffffffffffffffffffffffffffffff82169050919050565b6000610201826101d6565b9050919050565b610211816101f6565b811461021c57600080fd5b50565b60008135905061022e81610208565b92915050565b60006020828403121561024a576102496101d1565b5b60006102588482850161021f565b91505092915050565b6000819050919050565b61027481610261565b82525050565b600060208201905061028f600083018461026b565b92915050565b60006102a0826101d6565b9050919050565b6102b081610295565b81146102bb57600080fd5b50565b6000813590506102cd816102a7565b92915050565b6102dc81610261565b81146102e757600080fd5b50565b6000813590506102f9816102d3565b92915050565b60008060408385031215610316576103156101d1565b5b6000610324858286016102be565b9250506020610335858286016102ea565b9150509250929050565b60008115159050919050565b6103548161033f565b82525050565b600060208201905061036f600083018461034b565b92915050565b600081519050610384816102d3565b92915050565b6000602082840312156103a05761039f6101d1565b5b60006103ae84828501610375565b9150509291505056fea26469706673582212209973d72bbe6bf5b3bdfbf91b12db98953ef48a2b6b6d7bd845fceb14178e8c7464736f6c63430008130033",
  "immutableReferences": {},
  "source": "// SPDX-License-Identifier: MIT\r\npragma solidity >=0.8.19 <0.9.0;\r\nimport \"./Converter.sol\";\r\n\r\ncontract SimpleContract {\r\n    Converter converter; // contract from Converter.sol\r\n\r\n    address sender;\r\n\r\n    constructor() {\r\n        sender = msg.sender;\r\n    }\r\n\r\n    function getBalanceInEth(address addr) public view returns(uint) {\r\n        return converter.weiToEth(addr.balance);\r\n    }\r\n\r\n    function sendCoin(address payable receiver, uint sentCoin) public returns(bool) {\r\n        if(getBalanceInEth(sender) < sentCoin) return false;\r\n        return receiver.send(sentCoin);\r\n    }\r\n}",
  "sourcePath": "D:\\code\\solidity\\simple-contract\\contracts\\SimpleTransaction.sol",
  "compiler": {
    "name": "solc",
    "version": "0.8.19+commit.7dd6d404.Emscripten.clang"
  },
  "schemaVersion": "3.4.14",
  "updatedAt": "2023-07-21T16:35:38.638Z",
  "networkType": "ethereum",
  "devdoc": {
    "kind": "dev",
    "methods": {},
    "version": 1
  },
  "userdoc": {
    "kind": "user",
    "methods": {},
    "version": 1
  }
}