{
  "contractName": "SimpleContract",
  "abi": [
    {
      "inputs": [
        {
          "internalType": "address",
          "name": "addr",
          "type": "address"
        }
      ],
      "name": "getBalanceInEth",
      "outputs": [
        {
          "internalType": "uint256",
          "name": "",
          "type": "uint256"
        }
      ],
      "stateMutability": "view",
      "type": "function",
      "constant": true
    }
  ],
  "bytecode": "0x608060405234801561001057600080fd5b5061026e806100206000396000f3fe608060405234801561001057600080fd5b506004361061002b5760003560e01c80637bd703e814610030575b600080fd5b61004a6004803603810190610045919061017e565b610060565b60405161005791906101c4565b60405180910390f35b60008060009054906101000a900473ffffffffffffffffffffffffffffffffffffffff1673ffffffffffffffffffffffffffffffffffffffff1663f99a910c8373ffffffffffffffffffffffffffffffffffffffff16316040518263ffffffff1660e01b81526004016100d391906101c4565b602060405180830381865afa1580156100f0573d6000803e3d6000fd5b505050506040513d601f19601f82011682018060405250810190610114919061020b565b9050919050565b600080fd5b600073ffffffffffffffffffffffffffffffffffffffff82169050919050565b600061014b82610120565b9050919050565b61015b81610140565b811461016657600080fd5b50565b60008135905061017881610152565b92915050565b6000602082840312156101945761019361011b565b5b60006101a284828501610169565b91505092915050565b6000819050919050565b6101be816101ab565b82525050565b60006020820190506101d960008301846101b5565b92915050565b6101e8816101ab565b81146101f357600080fd5b50565b600081519050610205816101df565b92915050565b6000602082840312156102215761022061011b565b5b600061022f848285016101f6565b9150509291505056fea26469706673582212208cfeb48bbd7b2f73ed19b3ce4b567c4a9bc1ef27637e4bc16cd597a5fe1c65f264736f6c63430008130033",
  "immutableReferences": {},
  "source": "// SPDX-License-Identifier: MIT\r\npragma solidity >=0.8.19 <0.9.0;\r\nimport \"./Converter.sol\";\r\n\r\ncontract SimpleContract {\r\n    Converter converter; // contract from Converter.sol\r\n\r\n    // address sender;\r\n\r\n    // constructor() {\r\n    //     sender = msg.sender;\r\n    // }\r\n\r\n    function getBalanceInEth(address addr) public view returns(uint) {\r\n        return converter.weiToEth(addr.balance);\r\n    }\r\n\r\n    // function sendCoin(address payable receiver, uint sentCoin) public returns(bool) {\r\n    //     if(getBalanceInEth(sender) < sentCoin) return false;\r\n    //     return receiver.send(sentCoin);\r\n    // }\r\n}",
  "sourcePath": "D:\\code\\solidity\\simple-contract\\contracts\\SimpleTransaction.sol",
  "compiler": {
    "name": "solc",
    "version": "0.8.19+commit.7dd6d404.Emscripten.clang"
  },
  "schemaVersion": "3.4.14",
  "updatedAt": "2023-07-21T16:32:59.057Z",
  "networkType": "ethereum",
  "devdoc": {
    "kind": "dev",
    "methods": {},
    "version": 1
  },
  "userdoc": {
    "kind": "user",
    "methods": {},
    "version": 1
  }
}